{
  "contractName": "ProofOfExistence1",
  "abi": [
    {
      "constant": true,
      "inputs": [],
      "name": "proof",
      "outputs": [
        {
          "name": "",
          "type": "bytes32"
        }
      ],
      "payable": false,
      "stateMutability": "view",
      "type": "function"
    },
    {
      "constant": false,
      "inputs": [
        {
          "name": "document",
          "type": "string"
        }
      ],
      "name": "notarize",
      "outputs": [],
      "payable": false,
      "stateMutability": "nonpayable",
      "type": "function"
    },
    {
      "constant": true,
      "inputs": [
        {
          "name": "document",
          "type": "string"
        }
      ],
      "name": "proofFor",
      "outputs": [
        {
          "name": "",
          "type": "bytes32"
        }
      ],
      "payable": false,
      "stateMutability": "pure",
      "type": "function"
    }
  ],
  "bytecode": "0x608060405234801561001057600080fd5b50610342806100206000396000f3fe608060405234801561001057600080fd5b50600436106100415760003560e01c80637183616c14610046578063f6c1acdf14610101578063faf924cf146101d0575b600080fd5b6100ff6004803603602081101561005c57600080fd5b810190808035906020019064010000000081111561007957600080fd5b82018360208201111561008b57600080fd5b803590602001918460018302840111640100000000831117156100ad57600080fd5b91908080601f016020809104026020016040519081016040528093929190818152602001838380828437600081840152601f19601f8201169050808301925050505050505091929192905050506101ee565b005b6101ba6004803603602081101561011757600080fd5b810190808035906020019064010000000081111561013457600080fd5b82018360208201111561014657600080fd5b8035906020019184600183028401116401000000008311171561016857600080fd5b91908080601f016020809104026020016040519081016040528093929190818152602001838380828437600081840152601f19601f820116905080830192505050505050509192919290505050610200565b6040518082815260200191505060405180910390f35b6101d8610310565b6040518082815260200191505060405180910390f35b6101f781610200565b60008190555050565b60006002826040516020018082805190602001908083835b6020831061023b5780518252602082019150602081019050602083039250610218565b6001836020036101000a0380198251168184511680821785525050505050509050019150506040516020818303038152906040526040518082805190602001908083835b602083106102a2578051825260208201915060208101905060208303925061027f565b6001836020036101000a038019825116818451168082178552505050505050905001915050602060405180830381855afa1580156102e4573d6000803e3d6000fd5b5050506040513d60208110156102f957600080fd5b810190808051906020019092919050505050919050565b6000548156fea165627a7a72305820ecb9a3981f8a99080dfed3741b1509b51865ed4bbbd9de31d8c8e71b5b05da070029",
  "source": "pragma solidity ^0.5.0;\n// pragma solidity ^0.4.15;\n// Proof of Existence contract, version 1\ncontract ProofOfExistence1 \n{\n  // state\n  bytes32 public proof;\n\n  // calculate and store the proof for a document\n  // *transactional function*\n  function notarize(string memory document) public\n  {\n    proof = proofFor(document);\n  }\n\n  // helper function to get a document's sha256\n  // *read-only function*\n  function proofFor(string memory document ) pure public returns (bytes32)\n  {\n    sha256(abi.encodePacked(document));\n    // return sha256(document memory);\n  }\n}\n",
  "sourcePath": "/home/robert/github/solidity-experiments/contracts/ProofOfExistence.sol",
  "compiler": {
    "name": "solc",
    "version": "0.5.8+commit.23d335f2.Emscripten.clang"
  },
  "schemaVersion": "3.0.11",
  "updatedAt": "2019-07-22T17:52:52.419Z",
  "devdoc": {
    "methods": {}
  },
  "userdoc": {
    "methods": {}
  }
}